{
  "abi": [
    {
      "inputs": [],
      "stateMutability": "nonpayable",
      "type": "constructor"
    },
    {
      "inputs": [],
      "name": "Unauthorized",
      "type": "error"
    },
    {
      "anonymous": false,
      "inputs": [
        {
          "indexed": true,
          "internalType": "address",
          "name": "from",
          "type": "address"
        },
        {
          "indexed": false,
          "internalType": "uint256",
          "name": "amount",
          "type": "uint256"
        }
      ],
      "name": "Retrieved",
      "type": "event"
    },
    {
      "inputs": [],
      "name": "owner",
      "outputs": [
        {
          "internalType": "address",
          "name": "",
          "type": "address"
        }
      ],
      "stateMutability": "view",
      "type": "function"
    },
    {
      "inputs": [],
      "name": "retrieve",
      "outputs": [
        {
          "internalType": "uint256",
          "name": "",
          "type": "uint256"
        }
      ],
      "stateMutability": "nonpayable",
      "type": "function"
    },
    {
      "inputs": [
        {
          "internalType": "uint256",
          "name": "num",
          "type": "uint256"
        }
      ],
      "name": "store",
      "outputs": [],
      "stateMutability": "nonpayable",
      "type": "function"
    }
  ],
  "bytecode": {
    "object": "0x60a060405234801561001057600080fd5b503360805260805161020761003660003960008181607b015261010a01526102076000f3fe608060405234801561001057600080fd5b50600436106100415760003560e01c80632e64cec1146100465780636057361d146100615780638da5cb5b14610076575b600080fd5b61004e6100b5565b6040519081526020015b60405180910390f35b61007461006f3660046101b8565b6100ff565b005b61009d7f000000000000000000000000000000000000000000000000000000000000000081565b6040516001600160a01b039091168152602001610058565b60006100c03361014c565b60005460405190815233907f094703abe6f34e06c217139505bcc40e39f606853962e503a74d776a28f1148f9060200160405180910390a25060005490565b336001600160a01b037f00000000000000000000000000000000000000000000000000000000000000001614610147576040516282b42960e81b815260040160405180910390fd5b600055565b6040516001600160a01b03821660248201526101949060440160408051601f198184030181529190526020810180516001600160e01b031663161765e160e11b179052610197565b50565b80516a636f6e736f6c652e6c6f67602083016000808483855afa5050505050565b6000602082840312156101ca57600080fd5b503591905056fea264697066735822122042584631962a7fbd0cb1a1ab60485c86c4c115465911f2bc63cd57862b9867a264736f6c634300080f0033",
    "linkReferences": {}
  },
  "methodIdentifiers": {
    "owner()": "8da5cb5b",
    "retrieve()": "2e64cec1",
    "store(uint256)": "6057361d"
  },
  "id": 7
}